{
  "_format": "hh-sol-artifact-1",
  "contractName": "NFT",
  "sourceName": "contracts/Joystik.sol",
  "abi": [
    {
      "inputs": [
        {
          "internalType": "string",
          "name": "_name",
          "type": "string"
        },
        {
          "internalType": "string",
          "name": "_symbol",
          "type": "string"
        },
        {
          "internalType": "string",
          "name": "_initBaseURI",
          "type": "string"
        },
        {
          "internalType": "string",
          "name": "_initNotRevealedUri",
          "type": "string"
        }
      ],
      "stateMutability": "nonpayable",
      "type": "constructor"
    },
    {
      "anonymous": false,
      "inputs": [
        {
          "indexed": true,
          "internalType": "address",
          "name": "owner",
          "type": "address"
        },
        {
          "indexed": true,
          "internalType": "address",
          "name": "approved",
          "type": "address"
        },
        {
          "indexed": true,
          "internalType": "uint256",
          "name": "tokenId",
          "type": "uint256"
        }
      ],
      "name": "Approval",
      "type": "event"
    },
    {
      "anonymous": false,
      "inputs": [
        {
          "indexed": true,
          "internalType": "address",
          "name": "owner",
          "type": "address"
        },
        {
          "indexed": true,
          "internalType": "address",
          "name": "operator",
          "type": "address"
        },
        {
          "indexed": false,
          "internalType": "bool",
          "name": "approved",
          "type": "bool"
        }
      ],
      "name": "ApprovalForAll",
      "type": "event"
    },
    {
      "anonymous": false,
      "inputs": [
        {
          "indexed": true,
          "internalType": "address",
          "name": "previousOwner",
          "type": "address"
        },
        {
          "indexed": true,
          "internalType": "address",
          "name": "newOwner",
          "type": "address"
        }
      ],
      "name": "OwnershipTransferred",
      "type": "event"
    },
    {
      "anonymous": false,
      "inputs": [
        {
          "indexed": true,
          "internalType": "address",
          "name": "from",
          "type": "address"
        },
        {
          "indexed": true,
          "internalType": "address",
          "name": "to",
          "type": "address"
        },
        {
          "indexed": true,
          "internalType": "uint256",
          "name": "tokenId",
          "type": "uint256"
        }
      ],
      "name": "Transfer",
      "type": "event"
    },
    {
      "inputs": [
        {
          "internalType": "address",
          "name": "to",
          "type": "address"
        },
        {
          "internalType": "uint256",
          "name": "tokenId",
          "type": "uint256"
        }
      ],
      "name": "approve",
      "outputs": [],
      "stateMutability": "nonpayable",
      "type": "function"
    },
    {
      "inputs": [
        {
          "internalType": "address",
          "name": "owner",
          "type": "address"
        }
      ],
      "name": "balanceOf",
      "outputs": [
        {
          "internalType": "uint256",
          "name": "",
          "type": "uint256"
        }
      ],
      "stateMutability": "view",
      "type": "function"
    },
    {
      "inputs": [],
      "name": "baseExtension",
      "outputs": [
        {
          "internalType": "string",
          "name": "",
          "type": "string"
        }
      ],
      "stateMutability": "view",
      "type": "function"
    },
    {
      "inputs": [],
      "name": "baseURI",
      "outputs": [
        {
          "internalType": "string",
          "name": "",
          "type": "string"
        }
      ],
      "stateMutability": "view",
      "type": "function"
    },
    {
      "inputs": [],
      "name": "cost",
      "outputs": [
        {
          "internalType": "uint256",
          "name": "",
          "type": "uint256"
        }
      ],
      "stateMutability": "view",
      "type": "function"
    },
    {
      "inputs": [
        {
          "internalType": "uint256",
          "name": "tokenId",
          "type": "uint256"
        }
      ],
      "name": "getApproved",
      "outputs": [
        {
          "internalType": "address",
          "name": "",
          "type": "address"
        }
      ],
      "stateMutability": "view",
      "type": "function"
    },
    {
      "inputs": [
        {
          "internalType": "address",
          "name": "owner",
          "type": "address"
        },
        {
          "internalType": "address",
          "name": "operator",
          "type": "address"
        }
      ],
      "name": "isApprovedForAll",
      "outputs": [
        {
          "internalType": "bool",
          "name": "",
          "type": "bool"
        }
      ],
      "stateMutability": "view",
      "type": "function"
    },
    {
      "inputs": [
        {
          "internalType": "address",
          "name": "_user",
          "type": "address"
        }
      ],
      "name": "isWhitelisted",
      "outputs": [
        {
          "internalType": "bool",
          "name": "",
          "type": "bool"
        }
      ],
      "stateMutability": "view",
      "type": "function"
    },
    {
      "inputs": [],
      "name": "maxMintAmount",
      "outputs": [
        {
          "internalType": "uint256",
          "name": "",
          "type": "uint256"
        }
      ],
      "stateMutability": "view",
      "type": "function"
    },
    {
      "inputs": [],
      "name": "maxSupply",
      "outputs": [
        {
          "internalType": "uint256",
          "name": "",
          "type": "uint256"
        }
      ],
      "stateMutability": "view",
      "type": "function"
    },
    {
      "inputs": [
        {
          "internalType": "uint256",
          "name": "_mintAmount",
          "type": "uint256"
        }
      ],
      "name": "mint",
      "outputs": [],
      "stateMutability": "payable",
      "type": "function"
    },
    {
      "inputs": [],
      "name": "name",
      "outputs": [
        {
          "internalType": "string",
          "name": "",
          "type": "string"
        }
      ],
      "stateMutability": "view",
      "type": "function"
    },
    {
      "inputs": [],
      "name": "nftPerAddressLimit",
      "outputs": [
        {
          "internalType": "uint256",
          "name": "",
          "type": "uint256"
        }
      ],
      "stateMutability": "view",
      "type": "function"
    },
    {
      "inputs": [],
      "name": "notRevealedUri",
      "outputs": [
        {
          "internalType": "string",
          "name": "",
          "type": "string"
        }
      ],
      "stateMutability": "view",
      "type": "function"
    },
    {
      "inputs": [],
      "name": "onlyWhitelisted",
      "outputs": [
        {
          "internalType": "bool",
          "name": "",
          "type": "bool"
        }
      ],
      "stateMutability": "view",
      "type": "function"
    },
    {
      "inputs": [],
      "name": "owner",
      "outputs": [
        {
          "internalType": "address",
          "name": "",
          "type": "address"
        }
      ],
      "stateMutability": "view",
      "type": "function"
    },
    {
      "inputs": [
        {
          "internalType": "uint256",
          "name": "tokenId",
          "type": "uint256"
        }
      ],
      "name": "ownerOf",
      "outputs": [
        {
          "internalType": "address",
          "name": "",
          "type": "address"
        }
      ],
      "stateMutability": "view",
      "type": "function"
    },
    {
      "inputs": [
        {
          "internalType": "bool",
          "name": "_state",
          "type": "bool"
        }
      ],
      "name": "pause",
      "outputs": [],
      "stateMutability": "nonpayable",
      "type": "function"
    },
    {
      "inputs": [],
      "name": "paused",
      "outputs": [
        {
          "internalType": "bool",
          "name": "",
          "type": "bool"
        }
      ],
      "stateMutability": "view",
      "type": "function"
    },
    {
      "inputs": [],
      "name": "renounceOwnership",
      "outputs": [],
      "stateMutability": "nonpayable",
      "type": "function"
    },
    {
      "inputs": [],
      "name": "reveal",
      "outputs": [],
      "stateMutability": "nonpayable",
      "type": "function"
    },
    {
      "inputs": [],
      "name": "revealed",
      "outputs": [
        {
          "internalType": "bool",
          "name": "",
          "type": "bool"
        }
      ],
      "stateMutability": "view",
      "type": "function"
    },
    {
      "inputs": [
        {
          "internalType": "address",
          "name": "from",
          "type": "address"
        },
        {
          "internalType": "address",
          "name": "to",
          "type": "address"
        },
        {
          "internalType": "uint256",
          "name": "tokenId",
          "type": "uint256"
        }
      ],
      "name": "safeTransferFrom",
      "outputs": [],
      "stateMutability": "nonpayable",
      "type": "function"
    },
    {
      "inputs": [
        {
          "internalType": "address",
          "name": "from",
          "type": "address"
        },
        {
          "internalType": "address",
          "name": "to",
          "type": "address"
        },
        {
          "internalType": "uint256",
          "name": "tokenId",
          "type": "uint256"
        },
        {
          "internalType": "bytes",
          "name": "_data",
          "type": "bytes"
        }
      ],
      "name": "safeTransferFrom",
      "outputs": [],
      "stateMutability": "nonpayable",
      "type": "function"
    },
    {
      "inputs": [
        {
          "internalType": "address",
          "name": "operator",
          "type": "address"
        },
        {
          "internalType": "bool",
          "name": "approved",
          "type": "bool"
        }
      ],
      "name": "setApprovalForAll",
      "outputs": [],
      "stateMutability": "nonpayable",
      "type": "function"
    },
    {
      "inputs": [
        {
          "internalType": "string",
          "name": "_newBaseExtension",
          "type": "string"
        }
      ],
      "name": "setBaseExtension",
      "outputs": [],
      "stateMutability": "nonpayable",
      "type": "function"
    },
    {
      "inputs": [
        {
          "internalType": "string",
          "name": "_newBaseURI",
          "type": "string"
        }
      ],
      "name": "setBaseURI",
      "outputs": [],
      "stateMutability": "nonpayable",
      "type": "function"
    },
    {
      "inputs": [
        {
          "internalType": "uint256",
          "name": "_newCost",
          "type": "uint256"
        }
      ],
      "name": "setCost",
      "outputs": [],
      "stateMutability": "nonpayable",
      "type": "function"
    },
    {
      "inputs": [
        {
          "internalType": "uint256",
          "name": "_limit",
          "type": "uint256"
        }
      ],
      "name": "setNftPerAddressLimit",
      "outputs": [],
      "stateMutability": "nonpayable",
      "type": "function"
    },
    {
      "inputs": [
        {
          "internalType": "string",
          "name": "_notRevealedURI",
          "type": "string"
        }
      ],
      "name": "setNotRevealedURI",
      "outputs": [],
      "stateMutability": "nonpayable",
      "type": "function"
    },
    {
      "inputs": [
        {
          "internalType": "uint256",
          "name": "_newmaxMintAmount",
          "type": "uint256"
        }
      ],
      "name": "setmaxMintAmount",
      "outputs": [],
      "stateMutability": "nonpayable",
      "type": "function"
    },
    {
      "inputs": [
        {
          "internalType": "bytes4",
          "name": "interfaceId",
          "type": "bytes4"
        }
      ],
      "name": "supportsInterface",
      "outputs": [
        {
          "internalType": "bool",
          "name": "",
          "type": "bool"
        }
      ],
      "stateMutability": "view",
      "type": "function"
    },
    {
      "inputs": [],
      "name": "symbol",
      "outputs": [
        {
          "internalType": "string",
          "name": "",
          "type": "string"
        }
      ],
      "stateMutability": "view",
      "type": "function"
    },
    {
      "inputs": [
        {
          "internalType": "uint256",
          "name": "index",
          "type": "uint256"
        }
      ],
      "name": "tokenByIndex",
      "outputs": [
        {
          "internalType": "uint256",
          "name": "",
          "type": "uint256"
        }
      ],
      "stateMutability": "view",
      "type": "function"
    },
    {
      "inputs": [
        {
          "internalType": "address",
          "name": "owner",
          "type": "address"
        },
        {
          "internalType": "uint256",
          "name": "index",
          "type": "uint256"
        }
      ],
      "name": "tokenOfOwnerByIndex",
      "outputs": [
        {
          "internalType": "uint256",
          "name": "",
          "type": "uint256"
        }
      ],
      "stateMutability": "view",
      "type": "function"
    },
    {
      "inputs": [
        {
          "internalType": "uint256",
          "name": "tokenId",
          "type": "uint256"
        }
      ],
      "name": "tokenURI",
      "outputs": [
        {
          "internalType": "string",
          "name": "",
          "type": "string"
        }
      ],
      "stateMutability": "view",
      "type": "function"
    },
    {
      "inputs": [],
      "name": "totalSupply",
      "outputs": [
        {
          "internalType": "uint256",
          "name": "",
          "type": "uint256"
        }
      ],
      "stateMutability": "view",
      "type": "function"
    },
    {
      "inputs": [
        {
          "internalType": "address",
          "name": "from",
          "type": "address"
        },
        {
          "internalType": "address",
          "name": "to",
          "type": "address"
        },
        {
          "internalType": "uint256",
          "name": "tokenId",
          "type": "uint256"
        }
      ],
      "name": "transferFrom",
      "outputs": [],
      "stateMutability": "nonpayable",
      "type": "function"
    },
    {
      "inputs": [
        {
          "internalType": "address",
          "name": "newOwner",
          "type": "address"
        }
      ],
      "name": "transferOwnership",
      "outputs": [],
      "stateMutability": "nonpayable",
      "type": "function"
    },
    {
      "inputs": [
        {
          "internalType": "address",
          "name": "_owner",
          "type": "address"
        }
      ],
      "name": "walletOfOwner",
      "outputs": [
        {
          "internalType": "uint256[]",
          "name": "",
          "type": "uint256[]"
        }
      ],
      "stateMutability": "view",
      "type": "function"
    },
    {
      "inputs": [
        {
          "internalType": "address[]",
          "name": "_users",
          "type": "address[]"
        }
      ],
      "name": "whitelistUsers",
      "outputs": [],
      "stateMutability": "nonpayable",
      "type": "function"
    },
    {
      "inputs": [
        {
          "internalType": "address",
          "name": "",
          "type": "address"
        }
      ],
      "name": "whitelisted",
      "outputs": [
        {
          "internalType": "bool",
          "name": "",
          "type": "bool"
        }
      ],
      "stateMutability": "view",
      "type": "function"
    },
    {
      "inputs": [
        {
          "internalType": "uint256",
          "name": "",
          "type": "uint256"
        }
      ],
      "name": "whitelistedUsers",
      "outputs": [
        {
          "internalType": "address",
          "name": "",
          "type": "address"
        }
      ],
      "stateMutability": "view",
      "type": "function"
    },
    {
      "inputs": [],
      "name": "withdraw",
      "outputs": [],
      "stateMutability": "payable",
      "type": "function"
    }
  ],
  "bytecode": "0x60806040526040518060400160405280600581526020017f2e6a736f6e000000000000000000000000000000000000000000000000000000815250600c908051906020019062000051929190620003c1565b5066b1a2bc2ec50000600d55612710600e556014600f5560036010556000601160006101000a81548160ff0219169083151502179055506000601160016101000a81548160ff0219169083151502179055506001601460006101000a81548160ff021916908315150217905550348015620000cb57600080fd5b50604051620051b4380380620051b48339818101604052810190620000f19190620004e3565b838381600090805190602001906200010b929190620003c1565b50806001908051906020019062000124929190620003c1565b505050620001476200013b6200017360201b60201c565b6200017b60201b60201c565b62000158826200024160201b60201c565b6200016981620002ec60201b60201c565b5050505062000759565b600033905090565b6000600a60009054906101000a900473ffffffffffffffffffffffffffffffffffffffff16905081600a60006101000a81548173ffffffffffffffffffffffffffffffffffffffff021916908373ffffffffffffffffffffffffffffffffffffffff1602179055508173ffffffffffffffffffffffffffffffffffffffff168173ffffffffffffffffffffffffffffffffffffffff167f8be0079c531659141344cd1fd0a4f28419497f9722a3daafe3b4186f6b6457e060405160405180910390a35050565b620002516200017360201b60201c565b73ffffffffffffffffffffffffffffffffffffffff16620002776200039760201b60201c565b73ffffffffffffffffffffffffffffffffffffffff1614620002d0576040517f08c379a0000000000000000000000000000000000000000000000000000000008152600401620002c790620005f5565b60405180910390fd5b80600b9080519060200190620002e8929190620003c1565b5050565b620002fc6200017360201b60201c565b73ffffffffffffffffffffffffffffffffffffffff16620003226200039760201b60201c565b73ffffffffffffffffffffffffffffffffffffffff16146200037b576040517f08c379a00000000000000000000000000000000000000000000000000000000081526004016200037290620005f5565b60405180910390fd5b806012908051906020019062000393929190620003c1565b5050565b6000600a60009054906101000a900473ffffffffffffffffffffffffffffffffffffffff16905090565b828054620003cf90620006c5565b90600052602060002090601f016020900481019282620003f357600085556200043f565b82601f106200040e57805160ff19168380011785556200043f565b828001600101855582156200043f579182015b828111156200043e57825182559160200191906001019062000421565b5b5090506200044e919062000452565b5090565b5b808211156200046d57600081600090555060010162000453565b5090565b60006200048862000482846200064b565b62000617565b905082815260208101848484011115620004a157600080fd5b620004ae8482856200068f565b509392505050565b600082601f830112620004c857600080fd5b8151620004da84826020860162000471565b91505092915050565b60008060008060808587031215620004fa57600080fd5b600085015167ffffffffffffffff8111156200051557600080fd5b6200052387828801620004b6565b945050602085015167ffffffffffffffff8111156200054157600080fd5b6200054f87828801620004b6565b935050604085015167ffffffffffffffff8111156200056d57600080fd5b6200057b87828801620004b6565b925050606085015167ffffffffffffffff8111156200059957600080fd5b620005a787828801620004b6565b91505092959194509250565b6000620005c26020836200067e565b91507f4f776e61626c653a2063616c6c6572206973206e6f7420746865206f776e65726000830152602082019050919050565b600060208201905081810360008301526200061081620005b3565b9050919050565b6000604051905081810181811067ffffffffffffffff821117156200064157620006406200072a565b5b8060405250919050565b600067ffffffffffffffff8211156200066957620006686200072a565b5b601f19601f8301169050602081019050919050565b600082825260208201905092915050565b60005b83811015620006af57808201518184015260208101905062000692565b83811115620006bf576000848401525b50505050565b60006002820490506001821680620006de57607f821691505b60208210811415620006f557620006f4620006fb565b5b50919050565b7f4e487b7100000000000000000000000000000000000000000000000000000000600052602260045260246000fd5b7f4e487b7100000000000000000000000000000000000000000000000000000000600052604160045260246000fd5b614a4b80620007696000396000f3fe6080604052600436106102675760003560e01c806370a0823111610144578063ba7d2c76116100b6578063d936547e1161007a578063d936547e14610916578063da3ef23f14610953578063e985e9c51461097c578063edec5f27146109b9578063f2c4ce1e146109e2578063f2fde38b14610a0b57610267565b8063ba7d2c761461082f578063c66828621461085a578063c87b56dd14610885578063d0eb26b0146108c2578063d5abeb01146108eb57610267565b806395d89b411161010857806395d89b41146107545780639c70b5121461077f578063a0712d68146107aa578063a22cb465146107c6578063a475b5dd146107ef578063b88d4fde1461080657610267565b806370a082311461066f578063715018a6146106ac5780637f00c7a6146106c357806385668275146106ec5780638da5cb5b1461072957610267565b80633af32abf116101dd5780634f6ccce7116101a15780634f6ccce71461054b578063518302271461058857806355f804b3146105b35780635c975abb146105dc5780636352211e146106075780636c0360eb1461064457610267565b80633af32abf146104755780633ccfd60b146104b257806342842e0e146104bc578063438b6300146104e557806344a0d68a1461052257610267565b8063095ea7b31161022f578063095ea7b31461036557806313faede61461038e57806318160ddd146103b9578063239c70ae146103e457806323b872dd1461040f5780632f745c591461043857610267565b806301ffc9a71461026c57806302329a29146102a957806306fdde03146102d2578063081812fc146102fd578063081c8c441461033a575b600080fd5b34801561027857600080fd5b50610293600480360381019061028e9190613843565b610a34565b6040516102a09190614290565b60405180910390f35b3480156102b557600080fd5b506102d060048036038101906102cb919061381a565b610aae565b005b3480156102de57600080fd5b506102e7610b47565b6040516102f491906142ab565b60405180910390f35b34801561030957600080fd5b50610324600480360381019061031f91906138d6565b610bd9565b6040516103319190614207565b60405180910390f35b34801561034657600080fd5b5061034f610c5e565b60405161035c91906142ab565b60405180910390f35b34801561037157600080fd5b5061038c60048036038101906103879190613799565b610cec565b005b34801561039a57600080fd5b506103a3610e04565b6040516103b0919061452d565b60405180910390f35b3480156103c557600080fd5b506103ce610e0a565b6040516103db919061452d565b60405180910390f35b3480156103f057600080fd5b506103f9610e17565b604051610406919061452d565b60405180910390f35b34801561041b57600080fd5b5061043660048036038101906104319190613693565b610e1d565b005b34801561044457600080fd5b5061045f600480360381019061045a9190613799565b610e7d565b60405161046c919061452d565b60405180910390f35b34801561048157600080fd5b5061049c6004803603810190610497919061362e565b610f22565b6040516104a99190614290565b60405180910390f35b6104ba610ff7565b005b3480156104c857600080fd5b506104e360048036038101906104de9190613693565b6110ec565b005b3480156104f157600080fd5b5061050c6004803603810190610507919061362e565b61110c565b604051610519919061426e565b60405180910390f35b34801561052e57600080fd5b50610549600480360381019061054491906138d6565b611206565b005b34801561055757600080fd5b50610572600480360381019061056d91906138d6565b61128c565b60405161057f919061452d565b60405180910390f35b34801561059457600080fd5b5061059d611323565b6040516105aa9190614290565b60405180910390f35b3480156105bf57600080fd5b506105da60048036038101906105d59190613895565b611336565b005b3480156105e857600080fd5b506105f16113cc565b6040516105fe9190614290565b60405180910390f35b34801561061357600080fd5b5061062e600480360381019061062991906138d6565b6113df565b60405161063b9190614207565b60405180910390f35b34801561065057600080fd5b50610659611491565b60405161066691906142ab565b60405180910390f35b34801561067b57600080fd5b506106966004803603810190610691919061362e565b61151f565b6040516106a3919061452d565b60405180910390f35b3480156106b857600080fd5b506106c16115d7565b005b3480156106cf57600080fd5b506106ea60048036038101906106e591906138d6565b61165f565b005b3480156106f857600080fd5b50610713600480360381019061070e91906138d6565b6116e5565b6040516107209190614207565b60405180910390f35b34801561073557600080fd5b5061073e611724565b60405161074b9190614207565b60405180910390f35b34801561076057600080fd5b5061076961174e565b60405161077691906142ab565b60405180910390f35b34801561078b57600080fd5b506107946117e0565b6040516107a19190614290565b60405180910390f35b6107c460048036038101906107bf91906138d6565b6117f3565b005b3480156107d257600080fd5b506107ed60048036038101906107e8919061375d565b611944565b005b3480156107fb57600080fd5b50610804611ac5565b005b34801561081257600080fd5b5061082d600480360381019061082891906136e2565b611b5e565b005b34801561083b57600080fd5b50610844611bc0565b604051610851919061452d565b60405180910390f35b34801561086657600080fd5b5061086f611bc6565b60405161087c91906142ab565b60405180910390f35b34801561089157600080fd5b506108ac60048036038101906108a791906138d6565b611c54565b6040516108b991906142ab565b60405180910390f35b3480156108ce57600080fd5b506108e960048036038101906108e491906138d6565b611dad565b005b3480156108f757600080fd5b50610900611e33565b60405161090d919061452d565b60405180910390f35b34801561092257600080fd5b5061093d6004803603810190610938919061362e565b611e39565b60405161094a9190614290565b60405180910390f35b34801561095f57600080fd5b5061097a60048036038101906109759190613895565b611e59565b005b34801561098857600080fd5b506109a3600480360381019061099e9190613657565b611eef565b6040516109b09190614290565b60405180910390f35b3480156109c557600080fd5b506109e060048036038101906109db91906137d5565b611f83565b005b3480156109ee57600080fd5b50610a096004803603810190610a049190613895565b612023565b005b348015610a1757600080fd5b50610a326004803603810190610a2d919061362e565b6120b9565b005b60007f780e9d63000000000000000000000000000000000000000000000000000000007bffffffffffffffffffffffffffffffffffffffffffffffffffffffff1916827bffffffffffffffffffffffffffffffffffffffffffffffffffffffff19161480610aa75750610aa6826121b1565b5b9050919050565b610ab6612293565b73ffffffffffffffffffffffffffffffffffffffff16610ad4611724565b73ffffffffffffffffffffffffffffffffffffffff1614610b2a576040517f08c379a0000000000000000000000000000000000000000000000000000000008152600401610b219061444d565b60405180910390fd5b80601160006101000a81548160ff02191690831515021790555050565b606060008054610b5690614840565b80601f0160208091040260200160405190810160405280929190818152602001828054610b8290614840565b8015610bcf5780601f10610ba457610100808354040283529160200191610bcf565b820191906000526020600020905b815481529060010190602001808311610bb257829003601f168201915b5050505050905090565b6000610be48261229b565b610c23576040517f08c379a0000000000000000000000000000000000000000000000000000000008152600401610c1a9061442d565b60405180910390fd5b6004600083815260200190815260200160002060009054906101000a900473ffffffffffffffffffffffffffffffffffffffff169050919050565b60128054610c6b90614840565b80601f0160208091040260200160405190810160405280929190818152602001828054610c9790614840565b8015610ce45780601f10610cb957610100808354040283529160200191610ce4565b820191906000526020600020905b815481529060010190602001808311610cc757829003601f168201915b505050505081565b6000610cf7826113df565b90508073ffffffffffffffffffffffffffffffffffffffff168373ffffffffffffffffffffffffffffffffffffffff161415610d68576040517f08c379a0000000000000000000000000000000000000000000000000000000008152600401610d5f906144ad565b60405180910390fd5b8073ffffffffffffffffffffffffffffffffffffffff16610d87612293565b73ffffffffffffffffffffffffffffffffffffffff161480610db65750610db581610db0612293565b611eef565b5b610df5576040517f08c379a0000000000000000000000000000000000000000000000000000000008152600401610dec906143ad565b60405180910390fd5b610dff8383612307565b505050565b600d5481565b6000600880549050905090565b600f5481565b610e2e610e28612293565b826123c0565b610e6d576040517f08c379a0000000000000000000000000000000000000000000000000000000008152600401610e64906144ed565b60405180910390fd5b610e7883838361249e565b505050565b6000610e888361151f565b8210610ec9576040517f08c379a0000000000000000000000000000000000000000000000000000000008152600401610ec0906142cd565b60405180910390fd5b600660008473ffffffffffffffffffffffffffffffffffffffff1673ffffffffffffffffffffffffffffffffffffffff168152602001908152602001600020600083815260200190815260200160002054905092915050565b600080600090505b601580549050811015610fec578273ffffffffffffffffffffffffffffffffffffffff1660158281548110610f88577f4e487b7100000000000000000000000000000000000000000000000000000000600052603260045260246000fd5b9060005260206000200160009054906101000a900473ffffffffffffffffffffffffffffffffffffffff1673ffffffffffffffffffffffffffffffffffffffff161415610fd9576001915050610ff2565b8080610fe490614872565b915050610f2a565b50600090505b919050565b610fff612293565b73ffffffffffffffffffffffffffffffffffffffff1661101d611724565b73ffffffffffffffffffffffffffffffffffffffff1614611073576040517f08c379a000000000000000000000000000000000000000000000000000000000815260040161106a9061444d565b60405180910390fd5b60003373ffffffffffffffffffffffffffffffffffffffff1647604051611099906141f2565b60006040518083038185875af1925050503d80600081146110d6576040519150601f19603f3d011682016040523d82523d6000602084013e6110db565b606091505b50509050806110e957600080fd5b50565b61110783838360405180602001604052806000815250611b5e565b505050565b606060006111198361151f565b905060008167ffffffffffffffff81111561115d577f4e487b7100000000000000000000000000000000000000000000000000000000600052604160045260246000fd5b60405190808252806020026020018201604052801561118b5781602001602082028036833780820191505090505b50905060005b828110156111fb576111a38582610e7d565b8282815181106111dc577f4e487b7100000000000000000000000000000000000000000000000000000000600052603260045260246000fd5b60200260200101818152505080806111f390614872565b915050611191565b508092505050919050565b61120e612293565b73ffffffffffffffffffffffffffffffffffffffff1661122c611724565b73ffffffffffffffffffffffffffffffffffffffff1614611282576040517f08c379a00000000000000000000000000000000000000000000000000000000081526004016112799061444d565b60405180910390fd5b80600d8190555050565b6000611296610e0a565b82106112d7576040517f08c379a00000000000000000000000000000000000000000000000000000000081526004016112ce9061450d565b60405180910390fd5b60088281548110611311577f4e487b7100000000000000000000000000000000000000000000000000000000600052603260045260246000fd5b90600052602060002001549050919050565b601160019054906101000a900460ff1681565b61133e612293565b73ffffffffffffffffffffffffffffffffffffffff1661135c611724565b73ffffffffffffffffffffffffffffffffffffffff16146113b2576040517f08c379a00000000000000000000000000000000000000000000000000000000081526004016113a99061444d565b60405180910390fd5b80600b90805190602001906113c8929190613347565b5050565b601160009054906101000a900460ff1681565b6000806002600084815260200190815260200160002060009054906101000a900473ffffffffffffffffffffffffffffffffffffffff169050600073ffffffffffffffffffffffffffffffffffffffff168173ffffffffffffffffffffffffffffffffffffffff161415611488576040517f08c379a000000000000000000000000000000000000000000000000000000000815260040161147f906143ed565b60405180910390fd5b80915050919050565b600b805461149e90614840565b80601f01602080910402602001604051908101604052809291908181526020018280546114ca90614840565b80156115175780601f106114ec57610100808354040283529160200191611517565b820191906000526020600020905b8154815290600101906020018083116114fa57829003601f168201915b505050505081565b60008073ffffffffffffffffffffffffffffffffffffffff168273ffffffffffffffffffffffffffffffffffffffff161415611590576040517f08c379a0000000000000000000000000000000000000000000000000000000008152600401611587906143cd565b60405180910390fd5b600360008373ffffffffffffffffffffffffffffffffffffffff1673ffffffffffffffffffffffffffffffffffffffff168152602001908152602001600020549050919050565b6115df612293565b73ffffffffffffffffffffffffffffffffffffffff166115fd611724565b73ffffffffffffffffffffffffffffffffffffffff1614611653576040517f08c379a000000000000000000000000000000000000000000000000000000000815260040161164a9061444d565b60405180910390fd5b61165d60006126fa565b565b611667612293565b73ffffffffffffffffffffffffffffffffffffffff16611685611724565b73ffffffffffffffffffffffffffffffffffffffff16146116db576040517f08c379a00000000000000000000000000000000000000000000000000000000081526004016116d29061444d565b60405180910390fd5b80600f8190555050565b601581815481106116f557600080fd5b906000526020600020016000915054906101000a900473ffffffffffffffffffffffffffffffffffffffff1681565b6000600a60009054906101000a900473ffffffffffffffffffffffffffffffffffffffff16905090565b60606001805461175d90614840565b80601f016020809104026020016040519081016040528092919081815260200182805461178990614840565b80156117d65780601f106117ab576101008083540402835291602001916117d6565b820191906000526020600020905b8154815290600101906020018083116117b957829003601f168201915b5050505050905090565b601460009054906101000a900460ff1681565b601160009054906101000a900460ff161561180d57600080fd5b6000611817610e0a565b90506000821161182657600080fd5b600f5482111561183557600080fd5b600e5482826118449190614675565b111561184f57600080fd5b611857611724565b73ffffffffffffffffffffffffffffffffffffffff163373ffffffffffffffffffffffffffffffffffffffff16146119095760011515601460009054906101000a900460ff16151514156118ee576118ae33610f22565b6118ed576040517f08c379a00000000000000000000000000000000000000000000000000000000081526004016118e4906144cd565b60405180910390fd5b5b81600d546118fc91906146fc565b34101561190857600080fd5b5b6000600190505b82811161193f5761192c3382846119279190614675565b6127c0565b808061193790614872565b915050611910565b505050565b61194c612293565b73ffffffffffffffffffffffffffffffffffffffff168273ffffffffffffffffffffffffffffffffffffffff1614156119ba576040517f08c379a00000000000000000000000000000000000000000000000000000000081526004016119b19061436d565b60405180910390fd5b80600560006119c7612293565b73ffffffffffffffffffffffffffffffffffffffff1673ffffffffffffffffffffffffffffffffffffffff16815260200190815260200160002060008473ffffffffffffffffffffffffffffffffffffffff1673ffffffffffffffffffffffffffffffffffffffff16815260200190815260200160002060006101000a81548160ff0219169083151502179055508173ffffffffffffffffffffffffffffffffffffffff16611a74612293565b73ffffffffffffffffffffffffffffffffffffffff167f17307eab39ab6107e8899845ad3d59bd9653f200f220920489ca2b5937696c3183604051611ab99190614290565b60405180910390a35050565b611acd612293565b73ffffffffffffffffffffffffffffffffffffffff16611aeb611724565b73ffffffffffffffffffffffffffffffffffffffff1614611b41576040517f08c379a0000000000000000000000000000000000000000000000000000000008152600401611b389061444d565b60405180910390fd5b6001601160016101000a81548160ff021916908315150217905550565b611b6f611b69612293565b836123c0565b611bae576040517f08c379a0000000000000000000000000000000000000000000000000000000008152600401611ba5906144ed565b60405180910390fd5b611bba848484846127de565b50505050565b60105481565b600c8054611bd390614840565b80601f0160208091040260200160405190810160405280929190818152602001828054611bff90614840565b8015611c4c5780601f10611c2157610100808354040283529160200191611c4c565b820191906000526020600020905b815481529060010190602001808311611c2f57829003601f168201915b505050505081565b6060611c5f8261229b565b611c9e576040517f08c379a0000000000000000000000000000000000000000000000000000000008152600401611c959061448d565b60405180910390fd5b60001515601160019054906101000a900460ff1615151415611d4c5760128054611cc790614840565b80601f0160208091040260200160405190810160405280929190818152602001828054611cf390614840565b8015611d405780601f10611d1557610100808354040283529160200191611d40565b820191906000526020600020905b815481529060010190602001808311611d2357829003601f168201915b50505050509050611da8565b6000611d5661283a565b90506000815111611d765760405180602001604052806000815250611da4565b80611d80846128cc565b600c604051602001611d94939291906141c1565b6040516020818303038152906040525b9150505b919050565b611db5612293565b73ffffffffffffffffffffffffffffffffffffffff16611dd3611724565b73ffffffffffffffffffffffffffffffffffffffff1614611e29576040517f08c379a0000000000000000000000000000000000000000000000000000000008152600401611e209061444d565b60405180910390fd5b8060108190555050565b600e5481565b60136020528060005260406000206000915054906101000a900460ff1681565b611e61612293565b73ffffffffffffffffffffffffffffffffffffffff16611e7f611724565b73ffffffffffffffffffffffffffffffffffffffff1614611ed5576040517f08c379a0000000000000000000000000000000000000000000000000000000008152600401611ecc9061444d565b60405180910390fd5b80600c9080519060200190611eeb929190613347565b5050565b6000600560008473ffffffffffffffffffffffffffffffffffffffff1673ffffffffffffffffffffffffffffffffffffffff16815260200190815260200160002060008373ffffffffffffffffffffffffffffffffffffffff1673ffffffffffffffffffffffffffffffffffffffff16815260200190815260200160002060009054906101000a900460ff16905092915050565b611f8b612293565b73ffffffffffffffffffffffffffffffffffffffff16611fa9611724565b73ffffffffffffffffffffffffffffffffffffffff1614611fff576040517f08c379a0000000000000000000000000000000000000000000000000000000008152600401611ff69061444d565b60405180910390fd5b6015600061200d91906133cd565b81816015919061201e9291906133ee565b505050565b61202b612293565b73ffffffffffffffffffffffffffffffffffffffff16612049611724565b73ffffffffffffffffffffffffffffffffffffffff161461209f576040517f08c379a00000000000000000000000000000000000000000000000000000000081526004016120969061444d565b60405180910390fd5b80601290805190602001906120b5929190613347565b5050565b6120c1612293565b73ffffffffffffffffffffffffffffffffffffffff166120df611724565b73ffffffffffffffffffffffffffffffffffffffff1614612135576040517f08c379a000000000000000000000000000000000000000000000000000000000815260040161212c9061444d565b60405180910390fd5b600073ffffffffffffffffffffffffffffffffffffffff168173ffffffffffffffffffffffffffffffffffffffff1614156121a5576040517f08c379a000000000000000000000000000000000000000000000000000000000815260040161219c9061430d565b60405180910390fd5b6121ae816126fa565b50565b60007f80ac58cd000000000000000000000000000000000000000000000000000000007bffffffffffffffffffffffffffffffffffffffffffffffffffffffff1916827bffffffffffffffffffffffffffffffffffffffffffffffffffffffff1916148061227c57507f5b5e139f000000000000000000000000000000000000000000000000000000007bffffffffffffffffffffffffffffffffffffffffffffffffffffffff1916827bffffffffffffffffffffffffffffffffffffffffffffffffffffffff1916145b8061228c575061228b82612a79565b5b9050919050565b600033905090565b60008073ffffffffffffffffffffffffffffffffffffffff166002600084815260200190815260200160002060009054906101000a900473ffffffffffffffffffffffffffffffffffffffff1673ffffffffffffffffffffffffffffffffffffffff1614159050919050565b816004600083815260200190815260200160002060006101000a81548173ffffffffffffffffffffffffffffffffffffffff021916908373ffffffffffffffffffffffffffffffffffffffff160217905550808273ffffffffffffffffffffffffffffffffffffffff1661237a836113df565b73ffffffffffffffffffffffffffffffffffffffff167f8c5be1e5ebec7d5bd14f71427d1e84f3dd0314c0f7b2291e5b200ac8c7c3b92560405160405180910390a45050565b60006123cb8261229b565b61240a576040517f08c379a00000000000000000000000000000000000000000000000000000000081526004016124019061438d565b60405180910390fd5b6000612415836113df565b90508073ffffffffffffffffffffffffffffffffffffffff168473ffffffffffffffffffffffffffffffffffffffff16148061248457508373ffffffffffffffffffffffffffffffffffffffff1661246c84610bd9565b73ffffffffffffffffffffffffffffffffffffffff16145b8061249557506124948185611eef565b5b91505092915050565b8273ffffffffffffffffffffffffffffffffffffffff166124be826113df565b73ffffffffffffffffffffffffffffffffffffffff1614612514576040517f08c379a000000000000000000000000000000000000000000000000000000000815260040161250b9061446d565b60405180910390fd5b600073ffffffffffffffffffffffffffffffffffffffff168273ffffffffffffffffffffffffffffffffffffffff161415612584576040517f08c379a000000000000000000000000000000000000000000000000000000000815260040161257b9061434d565b60405180910390fd5b61258f838383612ae3565b61259a600082612307565b6001600360008573ffffffffffffffffffffffffffffffffffffffff1673ffffffffffffffffffffffffffffffffffffffff16815260200190815260200160002060008282546125ea9190614756565b925050819055506001600360008473ffffffffffffffffffffffffffffffffffffffff1673ffffffffffffffffffffffffffffffffffffffff16815260200190815260200160002060008282546126419190614675565b92505081905550816002600083815260200190815260200160002060006101000a81548173ffffffffffffffffffffffffffffffffffffffff021916908373ffffffffffffffffffffffffffffffffffffffff160217905550808273ffffffffffffffffffffffffffffffffffffffff168473ffffffffffffffffffffffffffffffffffffffff167fddf252ad1be2c89b69c2b068fc378daa952ba7f163c4a11628f55a4df523b3ef60405160405180910390a4505050565b6000600a60009054906101000a900473ffffffffffffffffffffffffffffffffffffffff16905081600a60006101000a81548173ffffffffffffffffffffffffffffffffffffffff021916908373ffffffffffffffffffffffffffffffffffffffff1602179055508173ffffffffffffffffffffffffffffffffffffffff168173ffffffffffffffffffffffffffffffffffffffff167f8be0079c531659141344cd1fd0a4f28419497f9722a3daafe3b4186f6b6457e060405160405180910390a35050565b6127da828260405180602001604052806000815250612bf7565b5050565b6127e984848461249e565b6127f584848484612c52565b612834576040517f08c379a000000000000000000000000000000000000000000000000000000000815260040161282b906142ed565b60405180910390fd5b50505050565b6060600b805461284990614840565b80601f016020809104026020016040519081016040528092919081815260200182805461287590614840565b80156128c25780601f10612897576101008083540402835291602001916128c2565b820191906000526020600020905b8154815290600101906020018083116128a557829003601f168201915b5050505050905090565b60606000821415612914576040518060400160405280600181526020017f30000000000000000000000000000000000000000000000000000000000000008152509050612a74565b600082905060005b6000821461294657808061292f90614872565b915050600a8261293f91906146cb565b915061291c565b60008167ffffffffffffffff811115612988577f4e487b7100000000000000000000000000000000000000000000000000000000600052604160045260246000fd5b6040519080825280601f01601f1916602001820160405280156129ba5781602001600182028036833780820191505090505b5090505b60008514612a6d576001826129d39190614756565b9150600a856129e291906148bb565b60306129ee9190614675565b60f81b818381518110612a2a577f4e487b7100000000000000000000000000000000000000000000000000000000600052603260045260246000fd5b60200101907effffffffffffffffffffffffffffffffffffffffffffffffffffffffffffff1916908160001a905350600a85612a6691906146cb565b94506129be565b8093505050505b919050565b60007f01ffc9a7000000000000000000000000000000000000000000000000000000007bffffffffffffffffffffffffffffffffffffffffffffffffffffffff1916827bffffffffffffffffffffffffffffffffffffffffffffffffffffffff1916149050919050565b612aee838383612de9565b600073ffffffffffffffffffffffffffffffffffffffff168373ffffffffffffffffffffffffffffffffffffffff161415612b3157612b2c81612dee565b612b70565b8173ffffffffffffffffffffffffffffffffffffffff168373ffffffffffffffffffffffffffffffffffffffff1614612b6f57612b6e8382612e37565b5b5b600073ffffffffffffffffffffffffffffffffffffffff168273ffffffffffffffffffffffffffffffffffffffff161415612bb357612bae81612fa4565b612bf2565b8273ffffffffffffffffffffffffffffffffffffffff168273ffffffffffffffffffffffffffffffffffffffff1614612bf157612bf082826130e7565b5b5b505050565b612c018383613166565b612c0e6000848484612c52565b612c4d576040517f08c379a0000000000000000000000000000000000000000000000000000000008152600401612c44906142ed565b60405180910390fd5b505050565b6000612c738473ffffffffffffffffffffffffffffffffffffffff16613334565b15612ddc578373ffffffffffffffffffffffffffffffffffffffff1663150b7a02612c9c612293565b8786866040518563ffffffff1660e01b8152600401612cbe9493929190614222565b602060405180830381600087803b158015612cd857600080fd5b505af1925050508015612d0957506040513d601f19601f82011682018060405250810190612d06919061386c565b60015b612d8c573d8060008114612d39576040519150601f19603f3d011682016040523d82523d6000602084013e612d3e565b606091505b50600081511415612d84576040517f08c379a0000000000000000000000000000000000000000000000000000000008152600401612d7b906142ed565b60405180910390fd5b805181602001fd5b63150b7a0260e01b7bffffffffffffffffffffffffffffffffffffffffffffffffffffffff1916817bffffffffffffffffffffffffffffffffffffffffffffffffffffffff191614915050612de1565b600190505b949350505050565b505050565b6008805490506009600083815260200190815260200160002081905550600881908060018154018082558091505060019003906000526020600020016000909190919091505550565b60006001612e448461151f565b612e4e9190614756565b9050600060076000848152602001908152602001600020549050818114612f33576000600660008673ffffffffffffffffffffffffffffffffffffffff1673ffffffffffffffffffffffffffffffffffffffff168152602001908152602001600020600084815260200190815260200160002054905080600660008773ffffffffffffffffffffffffffffffffffffffff1673ffffffffffffffffffffffffffffffffffffffff168152602001908152602001600020600084815260200190815260200160002081905550816007600083815260200190815260200160002081905550505b6007600084815260200190815260200160002060009055600660008573ffffffffffffffffffffffffffffffffffffffff1673ffffffffffffffffffffffffffffffffffffffff16815260200190815260200160002060008381526020019081526020016000206000905550505050565b60006001600880549050612fb89190614756565b905060006009600084815260200190815260200160002054905060006008838154811061300e577f4e487b7100000000000000000000000000000000000000000000000000000000600052603260045260246000fd5b906000526020600020015490508060088381548110613056577f4e487b7100000000000000000000000000000000000000000000000000000000600052603260045260246000fd5b9060005260206000200181905550816009600083815260200190815260200160002081905550600960008581526020019081526020016000206000905560088054806130cb577f4e487b7100000000000000000000000000000000000000000000000000000000600052603160045260246000fd5b6001900381819060005260206000200160009055905550505050565b60006130f28361151f565b905081600660008573ffffffffffffffffffffffffffffffffffffffff1673ffffffffffffffffffffffffffffffffffffffff168152602001908152602001600020600083815260200190815260200160002081905550806007600084815260200190815260200160002081905550505050565b600073ffffffffffffffffffffffffffffffffffffffff168273ffffffffffffffffffffffffffffffffffffffff1614156131d6576040517f08c379a00000000000000000000000000000000000000000000000000000000081526004016131cd9061440d565b60405180910390fd5b6131df8161229b565b1561321f576040517f08c379a00000000000000000000000000000000000000000000000000000000081526004016132169061432d565b60405180910390fd5b61322b60008383612ae3565b6001600360008473ffffffffffffffffffffffffffffffffffffffff1673ffffffffffffffffffffffffffffffffffffffff168152602001908152602001600020600082825461327b9190614675565b92505081905550816002600083815260200190815260200160002060006101000a81548173ffffffffffffffffffffffffffffffffffffffff021916908373ffffffffffffffffffffffffffffffffffffffff160217905550808273ffffffffffffffffffffffffffffffffffffffff16600073ffffffffffffffffffffffffffffffffffffffff167fddf252ad1be2c89b69c2b068fc378daa952ba7f163c4a11628f55a4df523b3ef60405160405180910390a45050565b600080823b905060008111915050919050565b82805461335390614840565b90600052602060002090601f01602090048101928261337557600085556133bc565b82601f1061338e57805160ff19168380011785556133bc565b828001600101855582156133bc579182015b828111156133bb5782518255916020019190600101906133a0565b5b5090506133c9919061348e565b5090565b50805460008255906000526020600020908101906133eb919061348e565b50565b82805482825590600052602060002090810192821561347d579160200282015b8281111561347c57823573ffffffffffffffffffffffffffffffffffffffff168260006101000a81548173ffffffffffffffffffffffffffffffffffffffff021916908373ffffffffffffffffffffffffffffffffffffffff1602179055509160200191906001019061340e565b5b50905061348a919061348e565b5090565b5b808211156134a757600081600090555060010161348f565b5090565b60006134be6134b984614579565b614548565b9050828152602081018484840111156134d657600080fd5b6134e18482856147fe565b509392505050565b60006134fc6134f7846145a9565b614548565b90508281526020810184848401111561351457600080fd5b61351f8482856147fe565b509392505050565b600081359050613536816149b9565b92915050565b60008083601f84011261354e57600080fd5b8235905067ffffffffffffffff81111561356757600080fd5b60208301915083602082028301111561357f57600080fd5b9250929050565b600081359050613595816149d0565b92915050565b6000813590506135aa816149e7565b92915050565b6000815190506135bf816149e7565b92915050565b600082601f8301126135d657600080fd5b81356135e68482602086016134ab565b91505092915050565b600082601f83011261360057600080fd5b81356136108482602086016134e9565b91505092915050565b600081359050613628816149fe565b92915050565b60006020828403121561364057600080fd5b600061364e84828501613527565b91505092915050565b6000806040838503121561366a57600080fd5b600061367885828601613527565b925050602061368985828601613527565b9150509250929050565b6000806000606084860312156136a857600080fd5b60006136b686828701613527565b93505060206136c786828701613527565b92505060406136d886828701613619565b9150509250925092565b600080600080608085870312156136f857600080fd5b600061370687828801613527565b945050602061371787828801613527565b935050604061372887828801613619565b925050606085013567ffffffffffffffff81111561374557600080fd5b613751878288016135c5565b91505092959194509250565b6000806040838503121561377057600080fd5b600061377e85828601613527565b925050602061378f85828601613586565b9150509250929050565b600080604083850312156137ac57600080fd5b60006137ba85828601613527565b92505060206137cb85828601613619565b9150509250929050565b600080602083850312156137e857600080fd5b600083013567ffffffffffffffff81111561380257600080fd5b61380e8582860161353c565b92509250509250929050565b60006020828403121561382c57600080fd5b600061383a84828501613586565b91505092915050565b60006020828403121561385557600080fd5b60006138638482850161359b565b91505092915050565b60006020828403121561387e57600080fd5b600061388c848285016135b0565b91505092915050565b6000602082840312156138a757600080fd5b600082013567ffffffffffffffff8111156138c157600080fd5b6138cd848285016135ef565b91505092915050565b6000602082840312156138e857600080fd5b60006138f684828501613619565b91505092915050565b600061390b83836141a3565b60208301905092915050565b6139208161478a565b82525050565b6000613931826145fe565b61393b818561462c565b9350613946836145d9565b8060005b8381101561397757815161395e88826138ff565b97506139698361461f565b92505060018101905061394a565b5085935050505092915050565b61398d8161479c565b82525050565b600061399e82614609565b6139a8818561463d565b93506139b881856020860161480d565b6139c1816149a8565b840191505092915050565b60006139d782614614565b6139e18185614659565b93506139f181856020860161480d565b6139fa816149a8565b840191505092915050565b6000613a1082614614565b613a1a818561466a565b9350613a2a81856020860161480d565b80840191505092915050565b60008154613a4381614840565b613a4d818661466a565b94506001821660008114613a685760018114613a7957613aac565b60ff19831686528186019350613aac565b613a82856145e9565b60005b83811015613aa457815481890152600182019150602081019050613a85565b838801955050505b50505092915050565b6000613ac2602b83614659565b91507f455243373231456e756d657261626c653a206f776e657220696e646578206f7560008301527f74206f6620626f756e64730000000000000000000000000000000000000000006020830152604082019050919050565b6000613b28603283614659565b91507f4552433732313a207472616e7366657220746f206e6f6e20455243373231526560008301527f63656976657220696d706c656d656e74657200000000000000000000000000006020830152604082019050919050565b6000613b8e602683614659565b91507f4f776e61626c653a206e6577206f776e657220697320746865207a65726f206160008301527f64647265737300000000000000000000000000000000000000000000000000006020830152604082019050919050565b6000613bf4601c83614659565b91507f4552433732313a20746f6b656e20616c7265616479206d696e746564000000006000830152602082019050919050565b6000613c34602483614659565b91507f4552433732313a207472616e7366657220746f20746865207a65726f2061646460008301527f72657373000000000000000000000000000000000000000000000000000000006020830152604082019050919050565b6000613c9a601983614659565b91507f4552433732313a20617070726f766520746f2063616c6c6572000000000000006000830152602082019050919050565b6000613cda602c83614659565b91507f4552433732313a206f70657261746f7220717565727920666f72206e6f6e657860008301527f697374656e7420746f6b656e00000000000000000000000000000000000000006020830152604082019050919050565b6000613d40603883614659565b91507f4552433732313a20617070726f76652063616c6c6572206973206e6f74206f7760008301527f6e6572206e6f7220617070726f76656420666f7220616c6c00000000000000006020830152604082019050919050565b6000613da6602a83614659565b91507f4552433732313a2062616c616e636520717565727920666f7220746865207a6560008301527f726f2061646472657373000000000000000000000000000000000000000000006020830152604082019050919050565b6000613e0c602983614659565b91507f4552433732313a206f776e657220717565727920666f72206e6f6e657869737460008301527f656e7420746f6b656e00000000000000000000000000000000000000000000006020830152604082019050919050565b6000613e72602083614659565b91507f4552433732313a206d696e7420746f20746865207a65726f20616464726573736000830152602082019050919050565b6000613eb2602c83614659565b91507f4552433732313a20617070726f76656420717565727920666f72206e6f6e657860008301527f697374656e7420746f6b656e00000000000000000000000000000000000000006020830152604082019050919050565b6000613f18602083614659565b91507f4f776e61626c653a2063616c6c6572206973206e6f7420746865206f776e65726000830152602082019050919050565b6000613f58602983614659565b91507f4552433732313a207472616e73666572206f6620746f6b656e2074686174206960008301527f73206e6f74206f776e00000000000000000000000000000000000000000000006020830152604082019050919050565b6000613fbe602f83614659565b91507f4552433732314d657461646174613a2055524920717565727920666f72206e6f60008301527f6e6578697374656e7420746f6b656e00000000000000000000000000000000006020830152604082019050919050565b6000614024602183614659565b91507f4552433732313a20617070726f76616c20746f2063757272656e74206f776e6560008301527f72000000000000000000000000000000000000000000000000000000000000006020830152604082019050919050565b600061408a601883614659565b91507f55736572206973206e6f742077686974656c69737465642100000000000000006000830152602082019050919050565b60006140ca60008361464e565b9150600082019050919050565b60006140e4603183614659565b91507f4552433732313a207472616e736665722063616c6c6572206973206e6f74206f60008301527f776e6572206e6f7220617070726f7665640000000000000000000000000000006020830152604082019050919050565b600061414a602c83614659565b91507f455243373231456e756d657261626c653a20676c6f62616c20696e646578206f60008301527f7574206f6620626f756e647300000000000000000000000000000000000000006020830152604082019050919050565b6141ac816147f4565b82525050565b6141bb816147f4565b82525050565b60006141cd8286613a05565b91506141d98285613a05565b91506141e58284613a36565b9150819050949350505050565b60006141fd826140bd565b9150819050919050565b600060208201905061421c6000830184613917565b92915050565b60006080820190506142376000830187613917565b6142446020830186613917565b61425160408301856141b2565b81810360608301526142638184613993565b905095945050505050565b600060208201905081810360008301526142888184613926565b905092915050565b60006020820190506142a56000830184613984565b92915050565b600060208201905081810360008301526142c581846139cc565b905092915050565b600060208201905081810360008301526142e681613ab5565b9050919050565b6000602082019050818103600083015261430681613b1b565b9050919050565b6000602082019050818103600083015261432681613b81565b9050919050565b6000602082019050818103600083015261434681613be7565b9050919050565b6000602082019050818103600083015261436681613c27565b9050919050565b6000602082019050818103600083015261438681613c8d565b9050919050565b600060208201905081810360008301526143a681613ccd565b9050919050565b600060208201905081810360008301526143c681613d33565b9050919050565b600060208201905081810360008301526143e681613d99565b9050919050565b6000602082019050818103600083015261440681613dff565b9050919050565b6000602082019050818103600083015261442681613e65565b9050919050565b6000602082019050818103600083015261444681613ea5565b9050919050565b6000602082019050818103600083015261446681613f0b565b9050919050565b6000602082019050818103600083015261448681613f4b565b9050919050565b600060208201905081810360008301526144a681613fb1565b9050919050565b600060208201905081810360008301526144c681614017565b9050919050565b600060208201905081810360008301526144e68161407d565b9050919050565b60006020820190508181036000830152614506816140d7565b9050919050565b600060208201905081810360008301526145268161413d565b9050919050565b600060208201905061454260008301846141b2565b92915050565b6000604051905081810181811067ffffffffffffffff8211171561456f5761456e614979565b5b8060405250919050565b600067ffffffffffffffff82111561459457614593614979565b5b601f19601f8301169050602081019050919050565b600067ffffffffffffffff8211156145c4576145c3614979565b5b601f19601f8301169050602081019050919050565b6000819050602082019050919050565b60008190508160005260206000209050919050565b600081519050919050565b600081519050919050565b600081519050919050565b6000602082019050919050565b600082825260208201905092915050565b600082825260208201905092915050565b600081905092915050565b600082825260208201905092915050565b600081905092915050565b6000614680826147f4565b915061468b836147f4565b9250827fffffffffffffffffffffffffffffffffffffffffffffffffffffffffffffffff038211156146c0576146bf6148ec565b5b828201905092915050565b60006146d6826147f4565b91506146e1836147f4565b9250826146f1576146f061491b565b5b828204905092915050565b6000614707826147f4565b9150614712836147f4565b9250817fffffffffffffffffffffffffffffffffffffffffffffffffffffffffffffffff048311821515161561474b5761474a6148ec565b5b828202905092915050565b6000614761826147f4565b915061476c836147f4565b92508282101561477f5761477e6148ec565b5b828203905092915050565b6000614795826147d4565b9050919050565b60008115159050919050565b60007fffffffff0000000000000000000000000000000000000000000000000000000082169050919050565b600073ffffffffffffffffffffffffffffffffffffffff82169050919050565b6000819050919050565b82818337600083830152505050565b60005b8381101561482b578082015181840152602081019050614810565b8381111561483a576000848401525b50505050565b6000600282049050600182168061485857607f821691505b6020821081141561486c5761486b61494a565b5b50919050565b600061487d826147f4565b91507fffffffffffffffffffffffffffffffffffffffffffffffffffffffffffffffff8214156148b0576148af6148ec565b5b600182019050919050565b60006148c6826147f4565b91506148d1836147f4565b9250826148e1576148e061491b565b5b828206905092915050565b7f4e487b7100000000000000000000000000000000000000000000000000000000600052601160045260246000fd5b7f4e487b7100000000000000000000000000000000000000000000000000000000600052601260045260246000fd5b7f4e487b7100000000000000000000000000000000000000000000000000000000600052602260045260246000fd5b7f4e487b7100000000000000000000000000000000000000000000000000000000600052604160045260246000fd5b6000601f19601f8301169050919050565b6149c28161478a565b81146149cd57600080fd5b50565b6149d98161479c565b81146149e457600080fd5b50565b6149f0816147a8565b81146149fb57600080fd5b50565b614a07816147f4565b8114614a1257600080fd5b5056fea2646970667358221220535ea318a38220ab52dffd68af57a7e4418e5d4b34ff8413b9bd06751a8824d264736f6c63430008000033",
  "linkReferences": {},
  "deployedLinkReferences": {}
}